S01600006370705F61706C69636174696F6E2E7372656348
S11300000C9434000C943E000C943E000C943E007E
S11300100C943E000C943E000C943E000C943E0064
S11300200C943E000C943E000C943E000C943E0054
S11300300C943E000C943E000C943E000C943E0044
S11300400C943E000C943E000C943E000C943E0034
S11300500C943E000C943E000C943E000C943E0024
S11300600C943E000C943E0011241FBECFEFD8E048
S1130070DEBFCDBF0E9440000C945E000C940000D3
S113008084B1816284B95098599A83E68093B00010
S11300908CE08093B10084EB8093B30082E380937F
S11300A0B40091E2489B03C085B1892785B9E3EF89
S11300B0F1E03197F1F700C00000F4CFF894FFCFDE
S9030000FC
