:100000000C9434000C943E000C943E000C943E0082
:100010000C943E000C943E000C943E000C943E0068
:100020000C943E000C943E000C943E000C943E0058
:100030000C943E000C943E000C943E000C943E0048
:100040000C943E000C943E000C943E000C943E0038
:100050000C943E000C943E000C943E000C943E0028
:100060000C943E000C943E0011241FBECFEFD8E04C
:10007000DEBFCDBF0E9445000C9458000C940000D8
:1000800095B183E2892785B9089584B1836284B9E3
:10009000519A5098C2E08BB18C278BB948990E9435
:1000A000400089EF90E00197F1F700C00000F3CF26
:0400B000F894FFCFF2
:00000001FF
